{
  "transactions": [
    {
      "hash": "0xc6ab08ab6713f3548bc48525bf9ce945c39c1aa0907199f3a95064e47e58984c",
      "transactionType": "CALL",
      "contractName": null,
      "contractAddress": "0x456e224ade45e4c4809f89d03c92df65165f86ca",
      "function": "setRootSubmitter(address)",
      "arguments": [
        "0x2AA016C6c0756A6c1d13c1183E9F552815E3a95c"
      ],
      "transaction": {
        "from": "0x2aa016c6c0756a6c1d13c1183e9f552815e3a95c",
        "to": "0x456e224ade45e4c4809f89d03c92df65165f86ca",
        "gas": "0x3eff9231",
        "value": "0x0",
        "input": "0xdd8cfac60000000000000000000000002aa016c6c0756a6c1d13c1183e9f552815e3a95c",
        "nonce": "0xb",
        "chainId": "0x1547",
        "zksync": {
          "factoryDeps": [],
          "paymasterData": null,
          "forceEvmInterpreter": null
        }
      },
      "additionalContracts": [],
      "isFixedGasLimit": true
    },
    {
      "hash": "0xbd6e28e34c8d2476ea1c5d0d2c957d7cb7c9f3dcaf3d781de89c06768d2026f8",
      "transactionType": "CALL",
      "contractName": null,
      "contractAddress": "0x0000000000000000000000000000000000008006",
      "function": "create(bytes32,bytes32,bytes)",
      "arguments": [
        "0x0000000000000000000000000000000000000000000000000000000000000000",
        "0x0100008b6e790e4c0761e507ce77bde93de7cdfb01a1b3a709d31d1bda9f4cf6",
        "0x00000000000000000000000040bb523d068279b998205a69a184f1146376b89f000000000000000000000000000000000000000000000000000000000000004000000000000000000000000000000000000000000000000000000000000001846676de4e38ff39d7e4f1f298c940abb8d55e04cb7a3cc89b34529ec26b11d8dac081e5d10000000000000000000000001234567890123456789012345678901234567890000000000000000000000000000000000000000000000000000000000000010000000000000000000000000000000000000000000000000000000000000001400000000000000000000000000000000000000000000000000000000000000012000000000000000000000000456e224ade45e4c4809f89d03c92df65165f86ca000000000000000000000000bfaf8231ed01e2631affe7f5e3c6d85006b8b33f000000000000000000000000b4d01f758b7725a7190f5db700fc081c44ec626a000000000000000000000000000000000000000000000000000000000000000a5465737420546f6b656e000000000000000000000000000000000000000000000000000000000000000000000000000000000000000000000000000000000004544553540000000000000000000000000000000000000000000000000000000000000000000000000000000000000000000000000000000000000000"
      ],
      "transaction": {
        "from": "0x2aa016c6c0756a6c1d13c1183e9f552815e3a95c",
        "to": "0x0000000000000000000000000000000000008006",
        "gas": "0x523cf785",
        "value": "0x0",
        "input": "0x9c4d535b00000000000000000000000000000000000000000000000000000000000000000100008b6e790e4c0761e507ce77bde93de7cdfb01a1b3a709d31d1bda9f4cf60000000000000000000000000000000000000000000000000000000000000060000000000000000000000000000000000000000000000000000000000000020000000000000000000000000040bb523d068279b998205a69a184f1146376b89f000000000000000000000000000000000000000000000000000000000000004000000000000000000000000000000000000000000000000000000000000001846676de4e38ff39d7e4f1f298c940abb8d55e04cb7a3cc89b34529ec26b11d8dac081e5d10000000000000000000000001234567890123456789012345678901234567890000000000000000000000000000000000000000000000000000000000000010000000000000000000000000000000000000000000000000000000000000001400000000000000000000000000000000000000000000000000000000000000012000000000000000000000000456e224ade45e4c4809f89d03c92df65165f86ca000000000000000000000000bfaf8231ed01e2631affe7f5e3c6d85006b8b33f000000000000000000000000b4d01f758b7725a7190f5db700fc081c44ec626a000000000000000000000000000000000000000000000000000000000000000a5465737420546f6b656e000000000000000000000000000000000000000000000000000000000000000000000000000000000000000000000000000000000004544553540000000000000000000000000000000000000000000000000000000000000000000000000000000000000000000000000000000000000000",
        "nonce": "0xc",
        "chainId": "0x1547",
        "zksync": {
          "factoryDeps": [
            [
              0,
              5,
              0,
              0,
              0,
              0,
              0,
              2,
              0,
              0,
              0,
              96,
              3,
              16,
              2,
              112,
              0,
              0,
              0,
              111,
              3,
              48,
              1,
              151,
              0,
              0,
              0,
              1,
              0,
              32,
              1,
              144,
              0,
              0,
              0,
              45,
              0,
              0,
              193,
              61,
              0,
              0,
              0,
              128,
              2,
              0,
              0,
              57,
              0,
              0,
              0,
              64,
              0,
              32,
              4,
              63,
              0,
              0,
              0,
              119,
              2,
              0,
              0,
              65,
              0,
              0,
              0,
              0,
              2,
              2,
              4,
              26,
              0,
              0,
              0,
              114,
              2,
              32,
              1,
              151,
              0,
              0,
              0,
              0,
              0,
              3,
              0,
              75,
              0,
              0,
              0,
              79,
              0,
              0,
              193,
              61,
              0,
              0,
              0,
              0,
              1,
              0,
              4,
              20,
              0,
              0,
              0,
              111,
              0,
              16,
              0,
              156,
              0,
              0,
              0,
              111,
              1,
              0,
              128,
              65,
              0,
              0,
              0,
              192,
              1,
              16,
              2,
              16,
              1,
              183,
              1,
              178,
              0,
              0,
              4,
              15,
              0,
              0,
              0,
              96,
              5,
              16,
              2,
              112,
              0,
              0,
              0,
              31,
              4,
              80,
              1,
              143,
              0,
              0,
              0,
              113,
              3,
              80,
              1,
              152,
              0,
              0,
              0,
              27,
              0,
              0,
              97,
              61,
              0,
              0,
              0,
              0,
              6,
              1,
              3,
              79,
              0,
              0,
              0,
              0,
              7,
              0,
              0,
              25,
              0,
              0,
              0,
              0,
              104,
              6,
              4,
              60,
              0,
              0,
              0,
              0,
              7,
              135,
              4,
              54,
              0,
              0,
              0,
              0,
              0,
              55,
              0,
              75,
              0,
              0,
              0,
              23,
              0,
              0,
              193,
              61,
              0,
              0,
              0,
              111,
              5,
              80,
              1,
              151,
              0,
              0,
              0,
              0,
              0,
              4,
              0,
              75,
              0,
              0,
              0,
              41,
              0,
              0,
              97,
              61,
              0,
              0,
              0,
              0,
              1,
              49,
              3,
              79,
              0,
              0,
              0,
              3,
              4,
              64,
              2,
              16,
              0,
              0,
              0,
              0,
              6,
              3,
              4,
              51,
              0,
              0,
              0,
              0,
              6,
              70,
              1,
              207,
              0,
              0,
              0,
              0,
              6,
              70,
              2,
              47,
              0,
              0,
              0,
              0,
              1,
              1,
              4,
              59,
              0,
              0,
              1,
              0,
              4,
              64,
              0,
              137,
              0,
              0,
              0,
              0,
              1,
              65,
              2,
              47,
              0,
              0,
              0,
              0,
              1,
              65,
              1,
              207,
              0,
              0,
              0,
              0,
              1,
              97,
              1,
              159,
              0,
              0,
              0,
              0,
              0,
              19,
              4,
              53,
              0,
              0,
              0,
              96,
              1,
              80,
              2,
              16,
              0,
              0,
              0,
              1,
              0,
              32,
              1,
              144,
              0,
              0,
              0,
              160,
              0,
              0,
              97,
              61,
              0,
              0,
              1,
              184,
              0,
              1,
              4,
              46,
              0,
              0,
              0,
              31,
              2,
              48,
              0,
              57,
              0,
              0,
              0,
              112,
              2,
              32,
              1,
              151,
              0,
              0,
              0,
              128,
              2,
              32,
              0,
              57,
              0,
              0,
              0,
              64,
              0,
              32,
              4,
              63,
              0,
              0,
              0,
              31,
              4,
              48,
              1,
              143,
              0,
              0,
              0,
              113,
              5,
              48,
              1,
              152,
              0,
              0,
              0,
              128,
              2,
              80,
              0,
              57,
              0,
              0,
              0,
              59,
              0,
              0,
              97,
              61,
              0,
              0,
              0,
              128,
              6,
              0,
              0,
              57,
              0,
              0,
              0,
              0,
              7,
              1,
              3,
              79,
              0,
              0,
              0,
              0,
              120,
              7,
              4,
              60,
              0,
              0,
              0,
              0,
              6,
              134,
              4,
              54,
              0,
              0,
              0,
              0,
              0,
              38,
              0,
              75,
              0,
              0,
              0,
              55,
              0,
              0,
              193,
              61,
              0,
              0,
              0,
              0,
              0,
              4,
              0,
              75,
              0,
              0,
              0,
              72,
              0,
              0,
              97,
              61,
              0,
              0,
              0,
              0,
              1,
              81,
              3,
              79,
              0,
              0,
              0,
              3,
              4,
              64,
              2,
              16,
              0,
              0,
              0,
              0,
              5,
              2,
              4,
              51,
              0,
              0,
              0,
              0,
              5,
              69,
              1,
              207,
              0,
              0,
              0,
              0,
              5,
              69,
              2,
              47,
              0,
              0,
              0,
              0,
              1,
              1,
              4,
              59,
              0,
              0,
              1,
              0,
              4,
              64,
              0,
              137,
              0,
              0,
              0,
              0,
              1,
              65,
              2,
              47,
              0,
              0,
              0,
              0,
              1,
              65,
              1,
              207,
              0,
              0,
              0,
              0,
              1,
              81,
              1,
              159,
              0,
              0,
              0,
              0,
              0,
              18,
              4,
              53,
              0,
              0,
              0,
              64,
              0,
              48,
              0,
              140,
              0,
              0,
              0,
              77,
              0,
              0,
              65,
              61,
              0,
              0,
              0,
              128,
              6,
              0,
              4,
              61,
              0,
              0,
              0,
              114,
              0,
              96,
              0,
              156,
              0,
              0,
              0,
              136,
              0,
              0,
              161,
              61,
              0,
              0,
              0,
              0,
              1,
              0,
              0,
              25,
              0,
              0,
              1,
              185,
              0,
              1,
              4,
              48,
              0,
              0,
              0,
              31,
              5,
              48,
              1,
              143,
              0,
              0,
              0,
              113,
              4,
              48,
              1,
              152,
              0,
              0,
              0,
              88,
              0,
              0,
              97,
              61,
              0,
              0,
              0,
              0,
              6,
              1,
              3,
              79,
              0,
              0,
              0,
              0,
              7,
              0,
              0,
              25,
              0,
              0,
              0,
              0,
              104,
              6,
              4,
              60,
              0,
              0,
              0,
              0,
              7,
              135,
              4,
              54,
              0,
              0,
              0,
              0,
              0,
              71,
              0,
              75,
              0,
              0,
              0,
              84,
              0,
              0,
              193,
              61,
              0,
              0,
              0,
              0,
              0,
              5,
              0,
              75,
              0,
              0,
              0,
              101,
              0,
              0,
              97,
              61,
              0,
              0,
              0,
              0,
              1,
              65,
              3,
              79,
              0,
              0,
              0,
              3,
              5,
              80,
              2,
              16,
              0,
              0,
              0,
              0,
              6,
              4,
              4,
              51,
              0,
              0,
              0,
              0,
              6,
              86,
              1,
              207,
              0,
              0,
              0,
              0,
              6,
              86,
              2,
              47,
              0,
              0,
              0,
              0,
              1,
              1,
              4,
              59,
              0,
              0,
              1,
              0,
              5,
              80,
              0,
              137,
              0,
              0,
              0,
              0,
              1,
              81,
              2,
              47,
              0,
              0,
              0,
              0,
              1,
              81,
              1,
              207,
              0,
              0,
              0,
              0,
              1,
              97,
              1,
              159,
              0,
              0,
              0,
              0,
              0,
              20,
              4,
              53,
              0,
              0,
              0,
              96,
              1,
              48,
              2,
              16,
              0,
              0,
              0,
              0,
              3,
              0,
              4,
              20,
              0,
              0,
              0,
              111,
              0,
              48,
              0,
              156,
              0,
              0,
              0,
              111,
              3,
              0,
              128,
              65,
              0,
              0,
              0,
              192,
              3,
              48,
              2,
              16,
              0,
              0,
              0,
              0,
              1,
              19,
              1,
              159,
              1,
              183,
              1,
              178,
              0,
              0,
              4,
              15,
              0,
              0,
              0,
              96,
              5,
              16,
              2,
              112,
              0,
              0,
              0,
              31,
              4,
              80,
              1,
              143,
              0,
              0,
              0,
              113,
              3,
              80,
              1,
              152,
              0,
              0,
              0,
              118,
              0,
              0,
              97,
              61,
              0,
              0,
              0,
              0,
              6,
              1,
              3,
              79,
              0,
              0,
              0,
              0,
              7,
              0,
              0,
              25,
              0,
              0,
              0,
              0,
              104,
              6,
              4,
              60,
              0,
              0,
              0,
              0,
              7,
              135,
              4,
              54,
              0,
              0,
              0,
              0,
              0,
              55,
              0,
              75,
              0,
              0,
              0,
              114,
              0,
              0,
              193,
              61,
              0,
              0,
              0,
              111,
              5,
              80,
              1,
              151,
              0,
              0,
              0,
              0,
              0,
              4,
              0,
              75,
              0,
              0,
              0,
              132,
              0,
              0,
              97,
              61,
              0,
              0,
              0,
              0,
              1,
              49,
              3,
              79,
              0,
              0,
              0,
              3,
              4,
              64,
              2,
              16,
              0,
              0,
              0,
              0,
              6,
              3,
              4,
              51,
              0,
              0,
              0,
              0,
              6,
              70,
              1,
              207,
              0,
              0,
              0,
              0,
              6,
              70,
              2,
              47,
              0,
              0,
              0,
              0,
              1,
              1,
              4,
              59,
              0,
              0,
              1,
              0,
              4,
              64,
              0,
              137,
              0,
              0,
              0,
              0,
              1,
              65,
              2,
              47,
              0,
              0,
              0,
              0,
              1,
              65,
              1,
              207,
              0,
              0,
              0,
              0,
              1,
              97,
              1,
              159,
              0,
              0,
              0,
              0,
              0,
              19,
              4,
              53,
              0,
              0,
              0,
              96,
              1,
              80,
              2,
              16,
              0,
              0,
              0,
              1,
              0,
              32,
              1,
              144,
              0,
              0,
              0,
              160,
              0,
              0,
              97,
              61,
              0,
              0,
              1,
              184,
              0,
              1,
              4,
              46,
              0,
              0,
              0,
              160,
              2,
              0,
              4,
              61,
              0,
              0,
              0,
              115,
              0,
              32,
              0,
              156,
              0,
              0,
              0,
              77,
              0,
              0,
              33,
              61,
              0,
              0,
              0,
              31,
              1,
              32,
              0,
              57,
              0,
              0,
              0,
              0,
              0,
              49,
              0,
              75,
              0,
              0,
              0,
              0,
              4,
              0,
              0,
              25,
              0,
              0,
              0,
              116,
              4,
              0,
              128,
              65,
              0,
              0,
              0,
              116,
              1,
              16,
              1,
              151,
              0,
              0,
              0,
              0,
              0,
              1,
              0,
              75,
              0,
              0,
              0,
              0,
              5,
              0,
              0,
              25,
              0,
              0,
              0,
              116,
              5,
              0,
              64,
              65,
              0,
              0,
              0,
              116,
              0,
              16,
              0,
              156,
              0,
              0,
              0,
              0,
              5,
              4,
              192,
              25,
              0,
              0,
              0,
              0,
              0,
              5,
              0,
              75,
              0,
              0,
              0,
              77,
              0,
              0,
              193,
              61,
              0,
              0,
              0,
              128,
              1,
              32,
              0,
              57,
              0,
              0,
              0,
              0,
              1,
              1,
              4,
              51,
              0,
              0,
              0,
              115,
              0,
              16,
              0,
              156,
              0,
              0,
              0,
              161,
              0,
              0,
              161,
              61,
              0,
              0,
              0,
              134,
              1,
              0,
              0,
              65,
              0,
              0,
              0,
              0,
              0,
              16,
              4,
              63,
              0,
              0,
              0,
              65,
              1,
              0,
              0,
              57,
              0,
              0,
              0,
              4,
              0,
              16,
              4,
              63,
              0,
              0,
              0,
              135,
              1,
              0,
              0,
              65,
              0,
              0,
              1,
              185,
              0,
              1,
              4,
              48,
              0,
              0,
              0,
              31,
              4,
              16,
              0,
              57,
              0,
              0,
              0,
              136,
              4,
              64,
              1,
              151,
              0,
              0,
              0,
              63,
              4,
              64,
              0,
              57,
              0,
              0,
              0,
              136,
              4,
              64,
              1,
              151,
              0,
              0,
              0,
              64,
              7,
              0,
              4,
              61,
              0,
              0,
              0,
              0,
              4,
              71,
              0,
              25,
              0,
              0,
              0,
              0,
              0,
              116,
              0,
              75,
              0,
              0,
              0,
              0,
              5,
              0,
              0,
              57,
              0,
              0,
              0,
              1,
              5,
              0,
              64,
              57,
              0,
              0,
              0,
              115,
              0,
              64,
              0,
              156,
              0,
              0,
              0,
              155,
              0,
              0,
              33,
              61,
              0,
              0,
              0,
              1,
              0,
              80,
              1,
              144,
              0,
              0,
              0,
              155,
              0,
              0,
              193,
              61,
              0,
              0,
              0,
              128,
              3,
              48,
              0,
              57,
              0,
              0,
              0,
              64,
              0,
              64,
              4,
              63,
              0,
              0,
              0,
              0,
              8,
              23,
              4,
              54,
              0,
              0,
              0,
              160,
              2,
              32,
              0,
              57,
              0,
              0,
              0,
              0,
              4,
              33,
              0,
              25,
              0,
              0,
              0,
              0,
              0,
              52,
              0,
              75,
              0,
              0,
              0,
              77,
              0,
              0,
              33,
              61,
              0,
              4,
              0,
              0,
              0,
              7,
              0,
              29,
              0,
              0,
              0,
              0,
              0,
              1,
              0,
              75,
              0,
              0,
              0,
              192,
              0,
              0,
              97,
              61,
              0,
              0,
              0,
              0,
              3,
              0,
              0,
              25,
              0,
              0,
              0,
              0,
              4,
              131,
              0,
              25,
              0,
              0,
              0,
              0,
              5,
              35,
              0,
              25,
              0,
              0,
              0,
              0,
              5,
              5,
              4,
              51,
              0,
              0,
              0,
              0,
              0,
              84,
              4,
              53,
              0,
              0,
              0,
              32,
              3,
              48,
              0,
              57,
              0,
              0,
              0,
              0,
              0,
              19,
              0,
              75,
              0,
              0,
              0,
              185,
              0,
              0,
              65,
              61,
              0,
              3,
              0,
              0,
              0,
              8,
              0,
              29,
              0,
              0,
              0,
              0,
              1,
              24,
              0,
              25,
              0,
              0,
              0,
              0,
              0,
              1,
              4,
              53,
              0,
              0,
              0,
              117,
              1,
              0,
              0,
              65,
              0,
              0,
              0,
              0,
              0,
              16,
              4,
              67,
              0,
              5,
              0,
              0,
              0,
              6,
              0,
              29,
              0,
              0,
              0,
              4,
              0,
              96,
              4,
              67,
              0,
              0,
              0,
              0,
              1,
              0,
              4,
              20,
              0,
              0,
              0,
              111,
              0,
              16,
              0,
              156,
              0,
              0,
              0,
              111,
              1,
              0,
              128,
              65,
              0,
              0,
              0,
              192,
              1,
              16,
              2,
              16,
              0,
              0,
              0,
              118,
              1,
              16,
              1,
              199,
              0,
              0,
              128,
              2,
              2,
              0,
              0,
              57,
              1,
              183,
              1,
              173,
              0,
              0,
              4,
              15,
              0,
              0,
              0,
              1,
              0,
              32,
              1,
              144,
              0,
              0,
              1,
              76,
              0,
              0,
              97,
              61,
              0,
              0,
              0,
              0,
              1,
              1,
              4,
              59,
              0,
              0,
              0,
              0,
              0,
              1,
              0,
              75,
              0,
              0,
              0,
              231,
              0,
              0,
              193,
              61,
              0,
              0,
              0,
              64,
              1,
              0,
              4,
              61,
              0,
              0,
              0,
              100,
              2,
              16,
              0,
              57,
              0,
              0,
              0,
              131,
              3,
              0,
              0,
              65,
              0,
              0,
              0,
              0,
              0,
              50,
              4,
              53,
              0,
              0,
              0,
              68,
              2,
              16,
              0,
              57,
              0,
              0,
              0,
              132,
              3,
              0,
              0,
              65,
              0,
              0,
              0,
              0,
              0,
              50,
              4,
              53,
              0,
              0,
              0,
              36,
              2,
              16,
              0,
              57,
              0,
              0,
              0,
              45,
              3,
              0,
              0,
              57,
              0,
              0,
              0,
              0,
              0,
              50,
              4,
              53,
              0,
              0,
              0,
              127,
              2,
              0,
              0,
              65,
              0,
              0,
              0,
              0,
              0,
              33,
              4,
              53,
              0,
              0,
              0,
              4,
              2,
              16,
              0,
              57,
              0,
              0,
              0,
              32,
              3,
              0,
              0,
              57,
              0,
              0,
              0,
              0,
              0,
              50,
              4,
              53,
              0,
              0,
              0,
              111,
              0,
              16,
              0,
              156,
              0,
              0,
              0,
              111,
              1,
              0,
              128,
              65,
              0,
              0,
              0,
              64,
              1,
              16,
              2,
              16,
              0,
              0,
              0,
              133,
              1,
              16,
              1,
              199,
              0,
              0,
              1,
              185,
              0,
              1,
              4,
              48,
              0,
              0,
              0,
              5,
              1,
              0,
              0,
              41,
              0,
              0,
              0,
              114,
              5,
              16,
              1,
              151,
              0,
              0,
              0,
              119,
              1,
              0,
              0,
              65,
              0,
              0,
              0,
              0,
              2,
              1,
              4,
              26,
              0,
              0,
              0,
              120,
              2,
              32,
              1,
              151,
              0,
              0,
              0,
              0,
              2,
              82,
              1,
              159,
              0,
              0,
              0,
              0,
              0,
              33,
              4,
              27,
              0,
              0,
              0,
              0,
              1,
              0,
              4,
              20,
              0,
              0,
              0,
              111,
              0,
              16,
              0,
              156,
              0,
              0,
              0,
              111,
              1,
              0,
              128,
              65,
              0,
              0,
              0,
              192,
              1,
              16,
              2,
              16,
              0,
              0,
              0,
              121,
              1,
              16,
              1,
              199,
              0,
              0,
              128,
              13,
              2,
              0,
              0,
              57,
              0,
              0,
              0,
              2,
              3,
              0,
              0,
              57,
              0,
              0,
              0,
              122,
              4,
              0,
              0,
              65,
              1,
              183,
              1,
              168,
              0,
              0,
              4,
              15,
              0,
              0,
              0,
              5,
              3,
              0,
              0,
              41,
              0,
              0,
              0,
              1,
              0,
              32,
              1,
              144,
              0,
              0,
              0,
              4,
              5,
              0,
              0,
              41,
              0,
              0,
              0,
              3,
              6,
              0,
              0,
              41,
              0,
              0,
              0,
              77,
              0,
              0,
              97,
              61,
              0,
              0,
              0,
              0,
              1,
              5,
              4,
              51,
              0,
              0,
              0,
              0,
              0,
              1,
              0,
              75,
              0,
              0,
              1,
              4,
              0,
              0,
              193,
              61,
              0,
              0,
              0,
              32,
              1,
              0,
              0,
              57,
              0,
              0,
              1,
              0,
              0,
              16,
              4,
              67,
              0,
              0,
              1,
              32,
              0,
              0,
              4,
              67,
              0,
              0,
              0,
              130,
              1,
              0,
              0,
              65,
              0,
              0,
              1,
              184,
              0,
              1,
              4,
              46,
              0,
              0,
              0,
              64,
              4,
              0,
              4,
              61,
              0,
              0,
              0,
              123,
              0,
              64,
              0,
              156,
              0,
              0,
              0,
              155,
              0,
              0,
              33,
              61,
              0,
              0,
              0,
              96,
              1,
              64,
              0,
              57,
              0,
              0,
              0,
              64,
              0,
              16,
              4,
              63,
              0,
              0,
              0,
              64,
              1,
              64,
              0,
              57,
              0,
              0,
              0,
              124,
              2,
              0,
              0,
              65,
              0,
              0,
              0,
              0,
              0,
              33,
              4,
              53,
              0,
              0,
              0,
              39,
              1,
              0,
              0,
              57,
              0,
              2,
              0,
              0,
              0,
              4,
              0,
              29,
              0,
              0,
              0,
              0,
              2,
              20,
              4,
              54,
              0,
              0,
              0,
              125,
              1,
              0,
              0,
              65,
              0,
              1,
              0,
              0,
              0,
              2,
              0,
              29,
              0,
              0,
              0,
              0,
              0,
              18,
              4,
              53,
              0,
              0,
              0,
              111,
              0,
              96,
              0,
              156,
              0,
              0,
              0,
              111,
              6,
              0,
              128,
              65,
              0,
              0,
              0,
              64,
              1,
              96,
              2,
              16,
              0,
              0,
              0,
              0,
              2,
              5,
              4,
              51,
              0,
              0,
              0,
              111,
              0,
              32,
              0,
              156,
              0,
              0,
              0,
              111,
              2,
              0,
              128,
              65,
              0,
              0,
              0,
              96,
              2,
              32,
              2,
              16,
              0,
              0,
              0,
              0,
              1,
              18,
              1,
              159,
              0,
              0,
              0,
              0,
              2,
              0,
              4,
              20,
              0,
              0,
              0,
              111,
              0,
              32,
              0,
              156,
              0,
              0,
              0,
              111,
              2,
              0,
              128,
              65,
              0,
              0,
              0,
              192,
              2,
              32,
              2,
              16,
              0,
              0,
              0,
              0,
              1,
              33,
              1,
              159,
              0,
              0,
              0,
              0,
              2,
              3,
              0,
              25,
              1,
              183,
              1,
              178,
              0,
              0,
              4,
              15,
              0,
              0,
              0,
              96,
              3,
              16,
              2,
              112,
              0,
              0,
              0,
              111,
              5,
              48,
              1,
              152,
              0,
              0,
              1,
              77,
              0,
              0,
              193,
              61,
              0,
              0,
              0,
              96,
              3,
              0,
              0,
              57,
              0,
              0,
              0,
              128,
              4,
              0,
              0,
              57,
              0,
              0,
              0,
              0,
              1,
              3,
              4,
              51,
              0,
              0,
              0,
              1,
              0,
              32,
              1,
              144,
              0,
              0,
              1,
              116,
              0,
              0,
              97,
              61,
              0,
              0,
              0,
              0,
              0,
              1,
              0,
              75,
              0,
              0,
              0,
              5,
              2,
              0,
              0,
              41,
              0,
              0,
              0,
              255,
              0,
              0,
              193,
              61,
              0,
              0,
              0,
              117,
              1,
              0,
              0,
              65,
              0,
              0,
              0,
              0,
              0,
              16,
              4,
              67,
              0,
              0,
              0,
              4,
              0,
              32,
              4,
              67,
              0,
              0,
              0,
              0,
              1,
              0,
              4,
              20,
              0,
              0,
              0,
              111,
              0,
              16,
              0,
              156,
              0,
              0,
              0,
              111,
              1,
              0,
              128,
              65,
              0,
              0,
              0,
              192,
              1,
              16,
              2,
              16,
              0,
              0,
              0,
              118,
              1,
              16,
              1,
              199,
              0,
              0,
              128,
              2,
              2,
              0,
              0,
              57,
              1,
              183,
              1,
              173,
              0,
              0,
              4,
              15,
              0,
              0,
              0,
              1,
              0,
              32,
              1,
              144,
              0,
              0,
              1,
              76,
              0,
              0,
              97,
              61,
              0,
              0,
              0,
              0,
              1,
              1,
              4,
              59,
              0,
              0,
              0,
              0,
              0,
              1,
              0,
              75,
              0,
              0,
              0,
              255,
              0,
              0,
              193,
              61,
              0,
              0,
              0,
              64,
              1,
              0,
              4,
              61,
              0,
              0,
              0,
              68,
              2,
              16,
              0,
              57,
              0,
              0,
              0,
              128,
              3,
              0,
              0,
              65,
              0,
              0,
              0,
              0,
              0,
              50,
              4,
              53,
              0,
              0,
              0,
              36,
              2,
              16,
              0,
              57,
              0,
              0,
              0,
              29,
              3,
              0,
              0,
              57,
              0,
              0,
              0,
              0,
              0,
              50,
              4,
              53,
              0,
              0,
              0,
              127,
              2,
              0,
              0,
              65,
              0,
              0,
              0,
              0,
              0,
              33,
              4,
              53,
              0,
              0,
              0,
              4,
              2,
              16,
              0,
              57,
              0,
              0,
              0,
              32,
              3,
              0,
              0,
              57,
              0,
              0,
              0,
              0,
              0,
              50,
              4,
              53,
              0,
              0,
              0,
              111,
              0,
              16,
              0,
              156,
              0,
              0,
              0,
              111,
              1,
              0,
              128,
              65,
              0,
              0,
              0,
              64,
              1,
              16,
              2,
              16,
              0,
              0,
              0,
              129,
              1,
              16,
              1,
              199,
              0,
              0,
              1,
              185,
              0,
              1,
              4,
              48,
              0,
              0,
              0,
              0,
              0,
              1,
              4,
              47,
              0,
              0,
              0,
              31,
              3,
              80,
              0,
              57,
              0,
              0,
              0,
              112,
              3,
              48,
              1,
              151,
              0,
              0,
              0,
              63,
              3,
              48,
              0,
              57,
              0,
              0,
              0,
              126,
              4,
              48,
              1,
              151,
              0,
              0,
              0,
              64,
              3,
              0,
              4,
              61,
              0,
              0,
              0,
              0,
              4,
              67,
              0,
              25,
              0,
              0,
              0,
              0,
              0,
              52,
              0,
              75,
              0,
              0,
              0,
              0,
              6,
              0,
              0,
              57,
              0,
              0,
              0,
              1,
              6,
              0,
              64,
              57,
              0,
              0,
              0,
              115,
              0,
              64,
              0,
              156,
              0,
              0,
              0,
              155,
              0,
              0,
              33,
              61,
              0,
              0,
              0,
              1,
              0,
              96,
              1,
              144,
              0,
              0,
              0,
              155,
              0,
              0,
              193,
              61,
              0,
              0,
              0,
              64,
              0,
              64,
              4,
              63,
              0,
              0,
              0,
              31,
              6,
              80,
              1,
              143,
              0,
              0,
              0,
              0,
              4,
              83,
              4,
              54,
              0,
              0,
              0,
              113,
              7,
              80,
              1,
              152,
              0,
              0,
              0,
              0,
              5,
              116,
              0,
              25,
              0,
              0,
              1,
              102,
              0,
              0,
              97,
              61,
              0,
              0,
              0,
              0,
              8,
              1,
              3,
              79,
              0,
              0,
              0,
              0,
              9,
              4,
              0,
              25,
              0,
              0,
              0,
              0,
              138,
              8,
              4,
              60,
              0,
              0,
              0,
              0,
              9,
              169,
              4,
              54,
              0,
              0,
              0,
              0,
              0,
              89,
              0,
              75,
              0,
              0,
              1,
              98,
              0,
              0,
              193,
              61,
              0,
              0,
              0,
              0,
              0,
              6,
              0,
              75,
              0,
              0,
              1,
              38,
              0,
              0,
              97,
              61,
              0,
              0,
              0,
              0,
              1,
              113,
              3,
              79,
              0,
              0,
              0,
              3,
              6,
              96,
              2,
              16,
              0,
              0,
              0,
              0,
              7,
              5,
              4,
              51,
              0,
              0,
              0,
              0,
              7,
              103,
              1,
              207,
              0,
              0,
              0,
              0,
              7,
              103,
              2,
              47,
              0,
              0,
              0,
              0,
              1,
              1,
              4,
              59,
              0,
              0,
              1,
              0,
              6,
              96,
              0,
              137,
              0,
              0,
              0,
              0,
              1,
              97,
              2,
              47,
              0,
              0,
              0,
              0,
              1,
              97,
              1,
              207,
              0,
              0,
              0,
              0,
              1,
              113,
              1,
              159,
              0,
              0,
              0,
              0,
              0,
              21,
              4,
              53,
              0,
              0,
              1,
              38,
              0,
              0,
              1,
              61,
              0,
              0,
              0,
              0,
              0,
              1,
              0,
              75,
              0,
              0,
              1,
              146,
              0,
              0,
              193,
              61,
              0,
              0,
              0,
              64,
              4,
              0,
              4,
              61,
              0,
              5,
              0,
              0,
              0,
              4,
              0,
              29,
              0,
              0,
              0,
              127,
              1,
              0,
              0,
              65,
              0,
              0,
              0,
              0,
              0,
              20,
              4,
              53,
              0,
              0,
              0,
              4,
              1,
              64,
              0,
              57,
              0,
              0,
              0,
              32,
              2,
              0,
              0,
              57,
              0,
              0,
              0,
              0,
              0,
              33,
              4,
              53,
              0,
              0,
              0,
              2,
              1,
              0,
              0,
              41,
              0,
              0,
              0,
              0,
              3,
              1,
              4,
              51,
              0,
              4,
              0,
              0,
              0,
              3,
              0,
              29,
              0,
              0,
              0,
              36,
              1,
              64,
              0,
              57,
              0,
              0,
              0,
              0,
              0,
              49,
              4,
              53,
              0,
              0,
              0,
              68,
              2,
              64,
              0,
              57,
              0,
              0,
              0,
              1,
              1,
              0,
              0,
              41,
              1,
              183,
              1,
              154,
              0,
              0,
              4,
              15,
              0,
              0,
              0,
              4,
              1,
              0,
              0,
              41,
              0,
              0,
              0,
              31,
              1,
              16,
              0,
              57,
              0,
              0,
              0,
              136,
              1,
              16,
              1,
              151,
              0,
              0,
              0,
              68,
              1,
              16,
              0,
              57,
              0,
              0,
              0,
              111,
              0,
              16,
              0,
              156,
              0,
              0,
              0,
              111,
              1,
              0,
              128,
              65,
              0,
              0,
              0,
              5,
              2,
              0,
              0,
              41,
              0,
              0,
              0,
              111,
              0,
              32,
              0,
              156,
              0,
              0,
              0,
              111,
              2,
              0,
              128,
              65,
              0,
              0,
              0,
              96,
              1,
              16,
              2,
              16,
              0,
              0,
              0,
              64,
              2,
              32,
              2,
              16,
              0,
              0,
              0,
              0,
              1,
              33,
              1,
              159,
              0,
              0,
              1,
              185,
              0,
              1,
              4,
              48,
              0,
              0,
              0,
              111,
              0,
              64,
              0,
              156,
              0,
              0,
              0,
              111,
              4,
              0,
              128,
              65,
              0,
              0,
              0,
              64,
              2,
              64,
              2,
              16,
              0,
              0,
              0,
              111,
              0,
              16,
              0,
              156,
              0,
              0,
              0,
              111,
              1,
              0,
              128,
              65,
              0,
              0,
              0,
              96,
              1,
              16,
              2,
              16,
              0,
              0,
              0,
              0,
              1,
              33,
              1,
              159,
              0,
              0,
              1,
              185,
              0,
              1,
              4,
              48,
              0,
              0,
              0,
              0,
              0,
              3,
              0,
              75,
              0,
              0,
              1,
              164,
              0,
              0,
              97,
              61,
              0,
              0,
              0,
              0,
              4,
              0,
              0,
              25,
              0,
              0,
              0,
              0,
              5,
              36,
              0,
              25,
              0,
              0,
              0,
              0,
              6,
              20,
              0,
              25,
              0,
              0,
              0,
              0,
              6,
              6,
              4,
              51,
              0,
              0,
              0,
              0,
              0,
              101,
              4,
              53,
              0,
              0,
              0,
              32,
              4,
              64,
              0,
              57,
              0,
              0,
              0,
              0,
              0,
              52,
              0,
              75,
              0,
              0,
              1,
              157,
              0,
              0,
              65,
              61,
              0,
              0,
              0,
              0,
              1,
              35,
              0,
              25,
              0,
              0,
              0,
              0,
              0,
              1,
              4,
              53,
              0,
              0,
              0,
              0,
              0,
              1,
              4,
              45,
              0,
              0,
              0,
              0,
              0,
              1,
              4,
              47,
              0,
              0,
              1,
              171,
              0,
              33,
              4,
              33,
              0,
              0,
              0,
              1,
              2,
              0,
              0,
              57,
              0,
              0,
              0,
              0,
              0,
              1,
              4,
              45,
              0,
              0,
              0,
              0,
              2,
              0,
              0,
              25,
              0,
              0,
              0,
              0,
              0,
              1,
              4,
              45,
              0,
              0,
              1,
              176,
              0,
              33,
              4,
              35,
              0,
              0,
              0,
              1,
              2,
              0,
              0,
              57,
              0,
              0,
              0,
              0,
              0,
              1,
              4,
              45,
              0,
              0,
              0,
              0,
              2,
              0,
              0,
              25,
              0,
              0,
              0,
              0,
              0,
              1,
              4,
              45,
              0,
              0,
              1,
              181,
              0,
              33,
              4,
              37,
              0,
              0,
              0,
              1,
              2,
              0,
              0,
              57,
              0,
              0,
              0,
              0,
              0,
              1,
              4,
              45,
              0,
              0,
              0,
              0,
              2,
              0,
              0,
              25,
              0,
              0,
              0,
              0,
              0,
              1,
              4,
              45,
              0,
              0,
              1,
              183,
              0,
              0,
              4,
              50,
              0,
              0,
              1,
              184,
              0,
              1,
              4,
              46,
              0,
              0,
              1,
              185,
              0,
              1,
              4,
              48,
              0,
              0,
              0,
              0,
              0,
              0,
              0,
              0,
              0,
              0,
              0,
              0,
              0,
              0,
              0,
              0,
              0,
              0,
              0,
              0,
              0,
              0,
              0,
              0,
              0,
              0,
              0,
              0,
              0,
              0,
              0,
              0,
              0,
              0,
              0,
              0,
              0,
              0,
              0,
              0,
              0,
              0,
              0,
              0,
              255,
              255,
              255,
              255,
              0,
              0,
              0,
              0,
              0,
              0,
              0,
              0,
              0,
              0,
              0,
              0,
              0,
              0,
              0,
              0,
              0,
              0,
              0,
              0,
              0,
              0,
              0,
              0,
              0,
              0,
              0,
              1,
              255,
              255,
              255,
              224,
              0,
              0,
              0,
              0,
              0,
              0,
              0,
              0,
              0,
              0,
              0,
              0,
              0,
              0,
              0,
              0,
              0,
              0,
              0,
              0,
              0,
              0,
              0,
              0,
              0,
              0,
              0,
              0,
              255,
              255,
              255,
              224,
              0,
              0,
              0,
              0,
              0,
              0,
              0,
              0,
              0,
              0,
              0,
              0,
              255,
              255,
              255,
              255,
              255,
              255,
              255,
              255,
              255,
              255,
              255,
              255,
              255,
              255,
              255,
              255,
              255,
              255,
              255,
              255,
              0,
              0,
              0,
              0,
              0,
              0,
              0,
              0,
              0,
              0,
              0,
              0,
              0,
              0,
              0,
              0,
              0,
              0,
              0,
              0,
              0,
              0,
              0,
              0,
              255,
              255,
              255,
              255,
              255,
              255,
              255,
              255,
              128,
              0,
              0,
              0,
              0,
              0,
              0,
              0,
              0,
              0,
              0,
              0,
              0,
              0,
              0,
              0,
              0,
              0,
              0,
              0,
              0,
              0,
              0,
              0,
              0,
              0,
              0,
              0,
              0,
              0,
              0,
              0,
              24,
              6,
              170,
              24,
              150,
              187,
              242,
              101,
              104,
              232,
              132,
              167,
              55,
              75,
              65,
              224,
              2,
              80,
              9,
              98,
              202,
              186,
              106,
              21,
              2,
              58,
              141,
              144,
              232,
              80,
              139,
              131,
              2,
              0,
              0,
              2,
              0,
              0,
              0,
              0,
              0,
              0,
              0,
              0,
              0,
              0,
              0,
              0,
              0,
              0,
              0,
              36,
              0,
              0,
              0,
              0,
              0,
              0,
              0,
              0,
              0,
              0,
              0,
              0,
              54,
              8,
              148,
              161,
              59,
              161,
              163,
              33,
              6,
              103,
              200,
              40,
              73,
              45,
              185,
              141,
              202,
              62,
              32,
              118,
              204,
              55,
              53,
              169,
              32,
              163,
              202,
              80,
              93,
              56,
              43,
              188,
              255,
              255,
              255,
              255,
              255,
              255,
              255,
              255,
              255,
              255,
              255,
              255,
              0,
              0,
              0,
              0,
              0,
              0,
              0,
              0,
              0,
              0,
              0,
              0,
              0,
              0,
              0,
              0,
              0,
              0,
              0,
              0,
              2,
              0,
              0,
              0,
              0,
              0,
              0,
              0,
              0,
              0,
              0,
              0,
              0,
              0,
              0,
              0,
              0,
              0,
              0,
              0,
              0,
              0,
              0,
              0,
              0,
              0,
              0,
              0,
              0,
              0,
              0,
              0,
              188,
              124,
              215,
              90,
              32,
              238,
              39,
              253,
              154,
              222,
              186,
              179,
              32,
              65,
              247,
              85,
              33,
              77,
              188,
              107,
              255,
              169,
              12,
              192,
              34,
              91,
              57,
              218,
              46,
              92,
              45,
              59,
              0,
              0,
              0,
              0,
              0,
              0,
              0,
              0,
              0,
              0,
              0,
              0,
              0,
              0,
              0,
              0,
              0,
              0,
              0,
              0,
              0,
              0,
              0,
              0,
              255,
              255,
              255,
              255,
              255,
              255,
              255,
              159,
              32,
              102,
              97,
              105,
              108,
              101,
              100,
              0,
              0,
              0,
              0,
              0,
              0,
              0,
              0,
              0,
              0,
              0,
              0,
              0,
              0,
              0,
              0,
              0,
              0,
              0,
              0,
              0,
              0,
              0,
              0,
              0,
              65,
              100,
              100,
              114,
              101,
              115,
              115,
              58,
              32,
              108,
              111,
              119,
              45,
              108,
              101,
              118,
              101,
              108,
              32,
              100,
              101,
              108,
              101,
              103,
              97,
              116,
              101,
              32,
              99,
              97,
              108,
              108,
              0,
              0,
              0,
              0,
              0,
              0,
              0,
              0,
              0,
              0,
              0,
              0,
              0,
              0,
              0,
              0,
              0,
              0,
              0,
              0,
              0,
              0,
              0,
              0,
              0,
              0,
              0,
              3,
              255,
              255,
              255,
              224,
              8,
              195,
              121,
              160,
              0,
              0,
              0,
              0,
              0,
              0,
              0,
              0,
              0,
              0,
              0,
              0,
              0,
              0,
              0,
              0,
              0,
              0,
              0,
              0,
              0,
              0,
              0,
              0,
              0,
              0,
              0,
              0,
              65,
              100,
              100,
              114,
              101,
              115,
              115,
              58,
              32,
              99,
              97,
              108,
              108,
              32,
              116,
              111,
              32,
              110,
              111,
              110,
              45,
              99,
              111,
              110,
              116,
              114,
              97,
              99,
              116,
              0,
              0,
              0,
              0,
              0,
              0,
              0,
              0,
              0,
              0,
              0,
              0,
              0,
              0,
              0,
              0,
              0,
              0,
              0,
              0,
              0,
              0,
              100,
              0,
              0,
              0,
              0,
              0,
              0,
              0,
              0,
              0,
              0,
              0,
              0,
              0,
              0,
              0,
              2,
              0,
              0,
              0,
              0,
              0,
              0,
              0,
              0,
              0,
              0,
              0,
              0,
              0,
              0,
              0,
              64,
              0,
              0,
              1,
              0,
              0,
              0,
              0,
              0,
              0,
              0,
              0,
              0,
              111,
              116,
              32,
              97,
              32,
              99,
              111,
              110,
              116,
              114,
              97,
              99,
              116,
              0,
              0,
              0,
              0,
              0,
              0,
              0,
              0,
              0,
              0,
              0,
              0,
              0,
              0,
              0,
              0,
              0,
              0,
              0,
              69,
              82,
              67,
              49,
              57,
              54,
              55,
              58,
              32,
              110,
              101,
              119,
              32,
              105,
              109,
              112,
              108,
              101,
              109,
              101,
              110,
              116,
              97,
              116,
              105,
              111,
              110,
              32,
              105,
              115,
              32,
              110,
              0,
              0,
              0,
              0,
              0,
              0,
              0,
              0,
              0,
              0,
              0,
              0,
              0,
              0,
              0,
              0,
              0,
              0,
              0,
              132,
              0,
              0,
              0,
              0,
              0,
              0,
              0,
              0,
              0,
              0,
              0,
              0,
              78,
              72,
              123,
              113,
              0,
              0,
              0,
              0,
              0,
              0,
              0,
              0,
              0,
              0,
              0,
              0,
              0,
              0,
              0,
              0,
              0,
              0,
              0,
              0,
              0,
              0,
              0,
              0,
              0,
              0,
              0,
              0,
              0,
              0,
              0,
              0,
              0,
              0,
              0,
              0,
              0,
              0,
              0,
              0,
              0,
              0,
              0,
              0,
              0,
              0,
              0,
              36,
              0,
              0,
              0,
              0,
              0,
              0,
              0,
              0,
              0,
              0,
              0,
              0,
              255,
              255,
              255,
              255,
              255,
              255,
              255,
              255,
              255,
              255,
              255,
              255,
              255,
              255,
              255,
              255,
              255,
              255,
              255,
              255,
              255,
              255,
              255,
              255,
              255,
              255,
              255,
              255,
              255,
              255,
              255,
              224,
              0,
              0,
              0,
              0,
              0,
              0,
              0,
              0,
              0,
              0,
              0,
              0,
              0,
              0,
              0,
              0,
              0,
              0,
              0,
              0,
              0,
              0,
              0,
              0,
              0,
              0,
              0,
              0,
              0,
              0,
              0,
              0,
              201,
              19,
              46,
              253,
              215,
              230,
              183,
              112,
              5,
              239,
              65,
              69,
              251,
              235,
              27,
              103,
              86,
              29,
              252,
              234,
              168,
              44,
              130,
              113,
              85,
              216,
              153,
              26,
              92,
              4,
              79,
              113
            ]
          ],
          "paymasterData": null,
          "forceEvmInterpreter": null
        }
      },
      "additionalContracts": [
        {
          "transactionType": "CREATE",
          "contractName": null,
          "address": "0xecdb8b4879c34eab01eb90a752237ec5d5136f67",
          "initCode": "0x00000000000000000000000040bb523d068279b998205a69a184f1146376b89f000000000000000000000000000000000000000000000000000000000000004000000000000000000000000000000000000000000000000000000000000001846676de4e38ff39d7e4f1f298c940abb8d55e04cb7a3cc89b34529ec26b11d8dac081e5d10000000000000000000000001234567890123456789012345678901234567890000000000000000000000000000000000000000000000000000000000000010000000000000000000000000000000000000000000000000000000000000001400000000000000000000000000000000000000000000000000000000000000012000000000000000000000000456e224ade45e4c4809f89d03c92df65165f86ca000000000000000000000000bfaf8231ed01e2631affe7f5e3c6d85006b8b33f000000000000000000000000b4d01f758b7725a7190f5db700fc081c44ec626a000000000000000000000000000000000000000000000000000000000000000a5465737420546f6b656e000000000000000000000000000000000000000000000000000000000000000000000000000000000000000000000000000000000004544553540000000000000000000000000000000000000000000000000000000000000000000000000000000000000000000000000000000000000000"
        }
      ],
      "isFixedGasLimit": false
    },
    {
      "hash": "0x987663896dcb3b78d8b11b853259e990e42f7b6388ce887465593439a6a5b572",
      "transactionType": "CALL",
      "contractName": null,
      "contractAddress": "0xbfaf8231ed01e2631affe7f5e3c6d85006b8b33f",
      "function": "authorizeMarker(address)",
      "arguments": [
        "0xECDB8b4879C34eab01Eb90a752237EC5D5136f67"
      ],
      "transaction": {
        "from": "0x2aa016c6c0756a6c1d13c1183e9f552815e3a95c",
        "to": "0xbfaf8231ed01e2631affe7f5e3c6d85006b8b33f",
        "gas": "0x4aef7dc",
        "value": "0x0",
        "input": "0x11cdb161000000000000000000000000ecdb8b4879c34eab01eb90a752237ec5d5136f67",
        "nonce": "0xd",
        "chainId": "0x1547",
        "zksync": {
          "factoryDeps": [],
          "paymasterData": null,
          "forceEvmInterpreter": null
        }
      },
      "additionalContracts": [],
      "isFixedGasLimit": true
    },
    {
      "hash": "0xfa75d03a699318ec3b4fff2d2c9569126fc710c71e0e085d96f05fb81150e776",
      "transactionType": "CALL",
      "contractName": null,
      "contractAddress": "0x456e224ade45e4c4809f89d03c92df65165f86ca",
      "function": "authorizeInserter(address)",
      "arguments": [
        "0xECDB8b4879C34eab01Eb90a752237EC5D5136f67"
      ],
      "transaction": {
        "from": "0x2aa016c6c0756a6c1d13c1183e9f552815e3a95c",
        "to": "0x456e224ade45e4c4809f89d03c92df65165f86ca",
        "gas": "0x4aef32c",
        "value": "0x0",
        "input": "0xfb6ad30d000000000000000000000000ecdb8b4879c34eab01eb90a752237ec5d5136f67",
        "nonce": "0xe",
        "chainId": "0x1547",
        "zksync": {
          "factoryDeps": [],
          "paymasterData": null,
          "forceEvmInterpreter": null
        }
      },
      "additionalContracts": [],
      "isFixedGasLimit": true
    }
  ],
  "receipts": [
    {
      "status": "0x1",
      "cumulativeGasUsed": "0x0",
      "logs": [
        {
          "address": "0x000000000000000000000000000000000000800a",
          "topics": [
            "0xddf252ad1be2c89b69c2b068fc378daa952ba7f163c4a11628f55a4df523b3ef",
            "0x0000000000000000000000002aa016c6c0756a6c1d13c1183e9f552815e3a95c",
            "0x0000000000000000000000000000000000000000000000000000000000008001"
          ],
          "data": "0x000000000000000000000000000000000000000000000000000011bb50135200",
          "blockHash": "0x3b4ca3f163becd84b7f2c6b23537d54d5e625a81baeea2492347a28bee675839",
          "blockNumber": "0x13",
          "blockTimestamp": "0x6925f69e",
          "transactionHash": "0xc6ab08ab6713f3548bc48525bf9ce945c39c1aa0907199f3a95064e47e58984c",
          "transactionIndex": "0x0",
          "logIndex": "0x0",
          "removed": false
        },
        {
          "address": "0x000000000000000000000000000000000000800a",
          "topics": [
            "0xddf252ad1be2c89b69c2b068fc378daa952ba7f163c4a11628f55a4df523b3ef",
            "0x0000000000000000000000000000000000000000000000000000000000008001",
            "0x0000000000000000000000002aa016c6c0756a6c1d13c1183e9f552815e3a95c"
          ],
          "data": "0x0000000000000000000000000000000000000000000000000000067f87441800",
          "blockHash": "0x3b4ca3f163becd84b7f2c6b23537d54d5e625a81baeea2492347a28bee675839",
          "blockNumber": "0x13",
          "blockTimestamp": "0x6925f69e",
          "transactionHash": "0xc6ab08ab6713f3548bc48525bf9ce945c39c1aa0907199f3a95064e47e58984c",
          "transactionIndex": "0x0",
          "logIndex": "0x1",
          "removed": false
        }
      ],
      "logsBloom": "0x00000000100400000000000000000000000000000000000000000000000000000000000000000000000000000000000000000000000000000000000000000000000000000000040000000008000000000000000000000000000000000000080000000000000000000000000000000000000000000000000000000010000000010000000000000000000004000000000000000000000000000000000000000000000000000000900000000000000000000000000000000000000000000000000000000002008000000000000000000000000000000000000000000000000000000000000000000000000000000000000000000000000000000000000000000000",
      "type": "0x71",
      "transactionHash": "0xc6ab08ab6713f3548bc48525bf9ce945c39c1aa0907199f3a95064e47e58984c",
      "transactionIndex": "0x0",
      "blockHash": "0x3b4ca3f163becd84b7f2c6b23537d54d5e625a81baeea2492347a28bee675839",
      "blockNumber": "0x13",
      "gasUsed": "0x1e27a",
      "effectiveGasPrice": "0x5f5e100",
      "from": "0x2aa016c6c0756a6c1d13c1183e9f552815e3a95c",
      "to": "0x456e224ade45e4c4809f89d03c92df65165f86ca",
      "contractAddress": null,
      "l1BatchNumber": null,
      "l1BatchTxIndex": null,
      "l2ToL1Logs": []
    },
    {
      "status": "0x1",
      "cumulativeGasUsed": "0x0",
      "logs": [
        {
          "address": "0x000000000000000000000000000000000000800a",
          "topics": [
            "0xddf252ad1be2c89b69c2b068fc378daa952ba7f163c4a11628f55a4df523b3ef",
            "0x0000000000000000000000002aa016c6c0756a6c1d13c1183e9f552815e3a95c",
            "0x0000000000000000000000000000000000000000000000000000000000008001"
          ],
          "data": "0x00000000000000000000000000000000000000000000000000006e21eda52800",
          "blockHash": "0xecfca2c93c985fbc5c02f1d1679bf66a37f3fa54962c19e2d2d622db1a7fa935",
          "blockNumber": "0x14",
          "blockTimestamp": "0x6925f69f",
          "transactionHash": "0xbd6e28e34c8d2476ea1c5d0d2c957d7cb7c9f3dcaf3d781de89c06768d2026f8",
          "transactionIndex": "0x0",
          "logIndex": "0x0",
          "removed": false
        },
        {
          "address": "0x0000000000000000000000000000000000008008",
          "topics": [
            "0x27fe8c0b49f49507b9d4fe5968c9f49edfe5c9df277d433a07a0717ede97638d"
          ],
          "data": "0x0000000000000000000000000000000000000000000000000000000000000000000000000000000000000000000000000000000000000000000000000000000100000000000000000000000000000000000000000000000000000000000000010000000000000000000000000000000000000000000000000000000000008008000000000000000000000000000000000000000000000000000000000000800e70cc9ef080d67ee3b9fff2ad5707a72f4ce973832e053e6fb1523d405026e677",
          "blockHash": "0xecfca2c93c985fbc5c02f1d1679bf66a37f3fa54962c19e2d2d622db1a7fa935",
          "blockNumber": "0x14",
          "blockTimestamp": "0x6925f69f",
          "transactionHash": "0xbd6e28e34c8d2476ea1c5d0d2c957d7cb7c9f3dcaf3d781de89c06768d2026f8",
          "transactionIndex": "0x0",
          "logIndex": "0x1",
          "removed": false
        },
        {
          "address": "0x0000000000000000000000000000000000008008",
          "topics": [
            "0x3a36e47291f4201faf137fab081d92295bce2d53be2c6ca68ba82c7faa9ce241",
            "0x000000000000000000000000000000000000000000000000000000000000800e",
            "0x70cc9ef080d67ee3b9fff2ad5707a72f4ce973832e053e6fb1523d405026e677"
          ],
          "data": "0x00000000000000000000000000000000000000000000000000000000000000200000000000000000000000000000000000000000000000000000000000000f42015d00000000000000000000006f010080410000006f0010009cffffffffffffffff000000000001042d0000000000320435000000000001004b000001b900010430000000000101043b00000001002001900000000000210435000001b80001042e000000c001100210000000000100041400000000020000190000000102000039000000000121019f0000006f020080410000006f0020009c000000000034004b0000009b0000213d000000000161019f00000000014101cf000000000141022f00000100044000890000000304400210000000000004004b0000000007870436000000006806043c0000000007000019000000000601034f01b701b20000040f7472616374000000416464726573733a000000240000000000000000ffffffff0000006001100210000000000001042f000000ff0000c13d0000000502000029000000400400043d0000004001100210000000200300003900000004021000390000007f0200004100000024021000390000004402100039000000400100043d0000014c0000613d01b701ad0000040f000080020200003900000076011001c7000000000010044300000075010000410000000000010435000000400040043f0000009b0000c13d000000730040009c000000880440019700000000040000190000004d0000213d0000000000140435000000000005004b0000000000120435000000a00000613d00000060015002100000000000130435000000000646022f00000000064601cf0000000006030433000000000131034f0000006f05500197000000000037004b00000071035001980000001f0450018f0000006005100270000000000003004b000000400020043f000000600310027055d8991a5c044f71561dfceaa82c827105ef4145fbeb1b67c9132efdd7e6b770ffffffffffffffe04e487b71000000000000008400000000696f6e206973206e6c656d656e746174206e657720696d70455243313936373a6f74206120636f6e000000400000010000000002000000000000006400000000206e6f6e2d636f6e2063616c6c20746f08c379a00000000000000003ffffffe06174652063616c6c656c2064656c6567206c6f772d6c6576206661696c656400ffffffffffffff9f225b39da2e5c2d3b214dbc6bffa90cc09adebab32041f755bc7cd75a20ee27fd0200000000000000ffffffff0000000020a3ca505d382bbcca3e2076cc3735a90667c828492db98d360894a13ba1a3210200000200000000023a8d90e8508b8302500962caba6a1568e884a7374b41e01806aa1896bbf265800000000000000000000000ffffffe000000001ffffffe0000001b700000432000001b500210425000001b000210423000001ab0021042100000000012300190000019d0000413d00000020044000390000000000650435000000000606043300000000061400190000000005240019000001a40000613d00000040024002100000006f040080410000006f0040009c0000004002200210000000440110003900000088011001970000001f01100039000000040100002901b7019a0000040f0000000101000029000000440240003900000000003104350000002401400039000400000003001d00000000030104330000000201000029000000200200003900000004014000390000007f01000041000500000004001d000001920000c13d000001260000013d0000000000150435000000000171019f00000000016101cf000000000161022f0000010006600089000000000767022f00000000076701cf00000000070504330000000306600210000000000171034f000001260000613d000000000006004b000001620000c13d000000000059004b0000000009a90436000000008a08043c0000000009040019000000000801034f000001660000613d0000000005740019000000710750019800000000045304360000001f0650018f0000000100600190000000010600403900000000060000390000000004430019000000400300043d0000007e043001970000003f0330003900000070033001970000001f0350003900000081011001c70000001d0300003900000080030000410000000400200443000001740000613d0000000001030433000000800400003900000060030000390000014d0000c13d0000006f053001980000000002030019000000c0022002100000000002000414000000000112019f0000006002200210000000000205043300000040016002100000006f060080410000006f0060009c000100000002001d0000007d010000410000000002140436000200000004001d00000027010000390000007c020000410000004001400039000000400010043f00000060014000390000007b0040009c0000008201000041000001200000044300000100001004430000002001000039000001040000c13d00000000010504330000004d0000613d00000003060000290000000405000029000000050300002901b701a80000040f0000007a0400004100000002030000390000800d0200003900000079011001c7000000000021041b000000000252019f0000007802200197000000000201041a00000077010000410000007205100197000000050100002900000085011001c70000002d03000039000000840300004100000083030000410000006402100039000000e70000c13d0000000400600443000500000006001d0000000001180019000300000008001d000000b90000413d000000000013004b000000200330003900000000005404350000000005050433000000000523001900000000048300190000000003000019000000c00000613d000400000007001d0000000004210019000000a00220003900000000081704360000008003300039000000010050019000000001050040390000000005000039000000000074004b0000000004470019000000400700043d0000003f044000390000001f041000390000008701000041000000040010043f0000004101000039000000000010043f0000008601000041000000a10000a13d000000730010009c000000000101043300000080012000390000004d0000c13d000000000504c019000000740010009c0000007405004041000000000500001900000074011001970000007404008041000000000031004b0000001f01200039000000730020009c000000a00200043d000000840000613d000000720000c13d000000760000613d000000000113019f000000c0033002100000006f030080410000006f0030009c0000000003000414000000600130021000000000015101cf000000000151022f0000010005500089000000000656022f00000000065601cf00000000060404330000000305500210000000000141034f000000650000613d000000540000c13d000000000047004b000000580000613d00000071043001980000001f0530018f0000000001000019000000880000a13d000000720060009c000000800600043d0000004d0000413d000000400030008c000000000151019f000000000545022f00000000054501cf0000000005020433000000000151034f000000480000613d000000370000c13d000000000026004b0000000006860436000000007807043c000000000701034f00000080060000390000003b0000613d000000800250003900000071053001980000001f0430018f000000800220003900000070022001970000001f02300039000000290000613d000000170000c13d0000001b0000613d0000004f0000c13d0000007202200197000000000202041a000000770200004100000080020000390000002d0000c13d0000006f033001970005000000000002015c004e015b0009015a0159004d015801570156004c0155000d00020001000c001f004b004a00490154001e001d001c001b004801530047001a015200460019004500440043000800180017001600150042004100090040000b01510150014f004d014e014d014c014b014a01490148014701460145001a0144014300190142014101400008001800170016013f003f013e013d013c013b013a01390007013801370136001e001d001c001b01350134003e0133013201310130012f012e0008012d012c012b0015003d012a01290128012701260125001f004b004a00490124001e001d001c001b004801230047001a012200460019004500440043000800180017001600150042004100090040000b01210120003c011f011e003b011d011c0006011b011a01190118003e01170116011501140113011201110110010f010e0007010d003a010c003a010b010a0109010801070039001401060038010500370104010301020013003c01010006010000ff00fe00fd00fc00fb00fa00f900f800f700f600360035003400f500f4000d00020001000c003300320031000900300008000600f3002f00f200f10005002e00f00005002d00ef0005002c000a002b002a000500020001002900ee000700ed00ec00eb00ea00e900e800e7000d00020001000c00e600e500e400e300e200e1000900e000df00de00dd000600dc00db00da00d900d8000b002800d7001400d600d500d400d3000a00d200d100d000cf00ce003f00cd00cc00cb00ca0012001100c900c800c70012001100c6001000c5001f004e00c400c300c200c100c0000900bf0006002700260035003400be000d00020001000c00330032003100090030000800060026002f002e00bd0005002d00bc0005002c000a002b002a000500020001002900bb0007002500ba00b900b800b700b600b5001300b400b30039001400b20038003700b100b000af00ae00ad00ac00ab00aa00a900a800a700a600a500a400a300a200a100a00008009f009e009d009c009b009a00060099002800980097003d00960095000a00940093009200910090008f008e008d008c008b008a008900020001002700120011002400880010000700870086008500020001002400100007004c0084003b0083008200810080007f0013007e007d003600040025007c000f0004000e0004007b000f0004000e0004007a000f0004000e00040079000b000700000000000000000000002300000000000000780000000000000077000000230003000300000000000000030076000000000000007500740073007200710000002200000070006f006e006d0003006c00000000006b000000000000006a006900680067000000000000006600650000000000000021006400630062000000000000006100600000000000000021005f005e002000000000005d0000005c0000005b0000005a002000000000005900580057005600000000005500000054000000000000000000000022000000030003000300530000000000000000005200510050004f000000000000000000000000000000000000000000000000000000000000",
          "blockHash": "0xecfca2c93c985fbc5c02f1d1679bf66a37f3fa54962c19e2d2d622db1a7fa935",
          "blockNumber": "0x14",
          "blockTimestamp": "0x6925f69f",
          "transactionHash": "0xbd6e28e34c8d2476ea1c5d0d2c957d7cb7c9f3dcaf3d781de89c06768d2026f8",
          "transactionIndex": "0x0",
          "logIndex": "0x2",
          "removed": false
        },
        {
          "address": "0x0000000000000000000000000000000000008004",
          "topics": [
            "0xc94722ff13eacf53547c4741dab5228353a05938ffcdd5d4a2d533ae0e618287",
            "0x0100008b6e790e4c0761e507ce77bde93de7cdfb01a1b3a709d31d1bda9f4cf6",
            "0x0000000000000000000000000000000000000000000000000000000000000000"
          ],
          "data": "0x",
          "blockHash": "0xecfca2c93c985fbc5c02f1d1679bf66a37f3fa54962c19e2d2d622db1a7fa935",
          "blockNumber": "0x14",
          "blockTimestamp": "0x6925f69f",
          "transactionHash": "0xbd6e28e34c8d2476ea1c5d0d2c957d7cb7c9f3dcaf3d781de89c06768d2026f8",
          "transactionIndex": "0x0",
          "logIndex": "0x3",
          "removed": false
        },
        {
          "address": "0xecdb8b4879c34eab01eb90a752237ec5d5136f67",
          "topics": [
            "0xbc7cd75a20ee27fd9adebab32041f755214dbc6bffa90cc0225b39da2e5c2d3b",
            "0x00000000000000000000000040bb523d068279b998205a69a184f1146376b89f"
          ],
          "data": "0x",
          "blockHash": "0xecfca2c93c985fbc5c02f1d1679bf66a37f3fa54962c19e2d2d622db1a7fa935",
          "blockNumber": "0x14",
          "blockTimestamp": "0x6925f69f",
          "transactionHash": "0xbd6e28e34c8d2476ea1c5d0d2c957d7cb7c9f3dcaf3d781de89c06768d2026f8",
          "transactionIndex": "0x0",
          "logIndex": "0x4",
          "removed": false
        },
        {
          "address": "0xecdb8b4879c34eab01eb90a752237ec5d5136f67",
          "topics": [
            "0x7f26b83ff96e1f2b6a682f133852f6798a09c465da95921460cefb3847402498"
          ],
          "data": "0x0000000000000000000000000000000000000000000000000000000000000001",
          "blockHash": "0xecfca2c93c985fbc5c02f1d1679bf66a37f3fa54962c19e2d2d622db1a7fa935",
          "blockNumber": "0x14",
          "blockTimestamp": "0x6925f69f",
          "transactionHash": "0xbd6e28e34c8d2476ea1c5d0d2c957d7cb7c9f3dcaf3d781de89c06768d2026f8",
          "transactionIndex": "0x0",
          "logIndex": "0x5",
          "removed": false
        },
        {
          "address": "0x0000000000000000000000000000000000008006",
          "topics": [
            "0x290afdae231a3fc0bbae8b1af63698b0a1d79b21ad17df0342dfb952fe74f8e5",
            "0x0000000000000000000000002aa016c6c0756a6c1d13c1183e9f552815e3a95c",
            "0x0100008b6e790e4c0761e507ce77bde93de7cdfb01a1b3a709d31d1bda9f4cf6",
            "0x000000000000000000000000ecdb8b4879c34eab01eb90a752237ec5d5136f67"
          ],
          "data": "0x",
          "blockHash": "0xecfca2c93c985fbc5c02f1d1679bf66a37f3fa54962c19e2d2d622db1a7fa935",
          "blockNumber": "0x14",
          "blockTimestamp": "0x6925f69f",
          "transactionHash": "0xbd6e28e34c8d2476ea1c5d0d2c957d7cb7c9f3dcaf3d781de89c06768d2026f8",
          "transactionIndex": "0x0",
          "logIndex": "0x6",
          "removed": false
        },
        {
          "address": "0x000000000000000000000000000000000000800a",
          "topics": [
            "0xddf252ad1be2c89b69c2b068fc378daa952ba7f163c4a11628f55a4df523b3ef",
            "0x0000000000000000000000000000000000000000000000000000000000008001",
            "0x0000000000000000000000002aa016c6c0756a6c1d13c1183e9f552815e3a95c"
          ],
          "data": "0x00000000000000000000000000000000000000000000000000003025c65e6c00",
          "blockHash": "0xecfca2c93c985fbc5c02f1d1679bf66a37f3fa54962c19e2d2d622db1a7fa935",
          "blockNumber": "0x14",
          "blockTimestamp": "0x6925f69f",
          "transactionHash": "0xbd6e28e34c8d2476ea1c5d0d2c957d7cb7c9f3dcaf3d781de89c06768d2026f8",
          "transactionIndex": "0x0",
          "logIndex": "0x7",
          "removed": false
        }
      ],
      "logsBloom": "0x00000000100400080000010000000000400040000000400000001000000000000000000000000000000000000041000000000000000000000000000000000000000100000000040000000028000042000400000008400000000000000000080000000000020300000000000000000800000000000000400000000010800000010000001000000000000004000100000000000100000280000000000000000080800000000800900000000000800500000000000000000000002002010000000000000022008000000000400000040000000010000100000000000000100020000000000000000000000000000000000000000040000080000000000080000000",
      "type": "0x71",
      "transactionHash": "0xbd6e28e34c8d2476ea1c5d0d2c957d7cb7c9f3dcaf3d781de89c06768d2026f8",
      "transactionIndex": "0x0",
      "blockHash": "0xecfca2c93c985fbc5c02f1d1679bf66a37f3fa54962c19e2d2d622db1a7fa935",
      "blockNumber": "0x14",
      "gasUsed": "0xa663c",
      "effectiveGasPrice": "0x5f5e100",
      "from": "0x2aa016c6c0756a6c1d13c1183e9f552815e3a95c",
      "to": "0x0000000000000000000000000000000000008006",
      "contractAddress": "0xecdb8b4879c34eab01eb90a752237ec5d5136f67",
      "l1BatchNumber": null,
      "l1BatchTxIndex": null,
      "l2ToL1Logs": [
        {
          "blockHash": "0xecfca2c93c985fbc5c02f1d1679bf66a37f3fa54962c19e2d2d622db1a7fa935",
          "blockNumber": "0x14",
          "l1BatchNumber": null,
          "logIndex": "0x0",
          "transactionIndex": "0x0",
          "transactionHash": "0xbd6e28e34c8d2476ea1c5d0d2c957d7cb7c9f3dcaf3d781de89c06768d2026f8",
          "transactionLogIndex": "0x0",
          "txIndexInL1Batch": "0x1",
          "shardId": "0x0",
          "isService": true,
          "sender": "0x0000000000000000000000000000000000008008",
          "key": "0x000000000000000000000000000000000000000000000000000000000000800e",
          "value": "0x70cc9ef080d67ee3b9fff2ad5707a72f4ce973832e053e6fb1523d405026e677"
        }
      ]
    },
    {
      "status": "0x1",
      "cumulativeGasUsed": "0x0",
      "logs": [
        {
          "address": "0x000000000000000000000000000000000000800a",
          "topics": [
            "0xddf252ad1be2c89b69c2b068fc378daa952ba7f163c4a11628f55a4df523b3ef",
            "0x0000000000000000000000002aa016c6c0756a6c1d13c1183e9f552815e3a95c",
            "0x0000000000000000000000000000000000000000000000000000000000008001"
          ],
          "data": "0x000000000000000000000000000000000000000000000000000011c45eb23700",
          "blockHash": "0x445816e86e4ade24dd4133b1be907bdaca33fd61fe0b4acec4f57c810b783489",
          "blockNumber": "0x16",
          "blockTimestamp": "0x6925f6a0",
          "transactionHash": "0x987663896dcb3b78d8b11b853259e990e42f7b6388ce887465593439a6a5b572",
          "transactionIndex": "0x0",
          "logIndex": "0x0",
          "removed": false
        },
        {
          "address": "0x000000000000000000000000000000000000800a",
          "topics": [
            "0xddf252ad1be2c89b69c2b068fc378daa952ba7f163c4a11628f55a4df523b3ef",
            "0x0000000000000000000000000000000000000000000000000000000000008001",
            "0x0000000000000000000000002aa016c6c0756a6c1d13c1183e9f552815e3a95c"
          ],
          "data": "0x00000000000000000000000000000000000000000000000000000684d6407c00",
          "blockHash": "0x445816e86e4ade24dd4133b1be907bdaca33fd61fe0b4acec4f57c810b783489",
          "blockNumber": "0x16",
          "blockTimestamp": "0x6925f6a0",
          "transactionHash": "0x987663896dcb3b78d8b11b853259e990e42f7b6388ce887465593439a6a5b572",
          "transactionIndex": "0x0",
          "logIndex": "0x1",
          "removed": false
        }
      ],
      "logsBloom": "0x00000000100400000000000000000000000000000000000000000000000000000000000000000000000000000000000000000000000000000000000000000000000000000000040000000008000000000000000000000000000000000000080000000000000000000000000000000000000000000000000000000010000000010000000000000000000004000000000000000000000000000000000000000000000000000000900000000000000000000000000000000000000000000000000000000002008000000000000000000000000000000000000000000000000000000000000000000000000000000000000000000000000000000000000000000000",
      "type": "0x71",
      "transactionHash": "0x987663896dcb3b78d8b11b853259e990e42f7b6388ce887465593439a6a5b572",
      "transactionIndex": "0x0",
      "blockHash": "0x445816e86e4ade24dd4133b1be907bdaca33fd61fe0b4acec4f57c810b783489",
      "blockNumber": "0x16",
      "gasUsed": "0x1e31b",
      "effectiveGasPrice": "0x5f5e100",
      "from": "0x2aa016c6c0756a6c1d13c1183e9f552815e3a95c",
      "to": "0xbfaf8231ed01e2631affe7f5e3c6d85006b8b33f",
      "contractAddress": null,
      "l1BatchNumber": null,
      "l1BatchTxIndex": null,
      "l2ToL1Logs": []
    },
    {
      "status": "0x1",
      "cumulativeGasUsed": "0x0",
      "logs": [
        {
          "address": "0x000000000000000000000000000000000000800a",
          "topics": [
            "0xddf252ad1be2c89b69c2b068fc378daa952ba7f163c4a11628f55a4df523b3ef",
            "0x0000000000000000000000002aa016c6c0756a6c1d13c1183e9f552815e3a95c",
            "0x0000000000000000000000000000000000000000000000000000000000008001"
          ],
          "data": "0x000000000000000000000000000000000000000000000000000012847a7d1200",
          "blockHash": "0xc7d3bd5eea33152d131038719d9f0ab61871304d9ae670d513775d2a3be25d0e",
          "blockNumber": "0x17",
          "blockTimestamp": "0x6925f6a1",
          "transactionHash": "0xfa75d03a699318ec3b4fff2d2c9569126fc710c71e0e085d96f05fb81150e776",
          "transactionIndex": "0x0",
          "logIndex": "0x0",
          "removed": false
        },
        {
          "address": "0x000000000000000000000000000000000000800a",
          "topics": [
            "0xddf252ad1be2c89b69c2b068fc378daa952ba7f163c4a11628f55a4df523b3ef",
            "0x0000000000000000000000000000000000000000000000000000000000008001",
            "0x0000000000000000000000002aa016c6c0756a6c1d13c1183e9f552815e3a95c"
          ],
          "data": "0x00000000000000000000000000000000000000000000000000000aec1623bb00",
          "blockHash": "0xc7d3bd5eea33152d131038719d9f0ab61871304d9ae670d513775d2a3be25d0e",
          "blockNumber": "0x17",
          "blockTimestamp": "0x6925f6a1",
          "transactionHash": "0xfa75d03a699318ec3b4fff2d2c9569126fc710c71e0e085d96f05fb81150e776",
          "transactionIndex": "0x0",
          "logIndex": "0x1",
          "removed": false
        }
      ],
      "logsBloom": "0x00000000100400000000000000000000000000000000000000000000000000000000000000000000000000000000000000000000000000000000000000000000000000000000040000000008000000000000000000000000000000000000080000000000000000000000000000000000000000000000000000000010000000010000000000000000000004000000000000000000000000000000000000000000000000000000900000000000000000000000000000000000000000000000000000000002008000000000000000000000000000000000000000000000000000000000000000000000000000000000000000000000000000000000000000000000",
      "type": "0x71",
      "transactionHash": "0xfa75d03a699318ec3b4fff2d2c9569126fc710c71e0e085d96f05fb81150e776",
      "transactionIndex": "0x0",
      "blockHash": "0xc7d3bd5eea33152d131038719d9f0ab61871304d9ae670d513775d2a3be25d0e",
      "blockNumber": "0x17",
      "gasUsed": "0x14637",
      "effectiveGasPrice": "0x5f5e100",
      "from": "0x2aa016c6c0756a6c1d13c1183e9f552815e3a95c",
      "to": "0x456e224ade45e4c4809f89d03c92df65165f86ca",
      "contractAddress": null,
      "l1BatchNumber": "0xb",
      "l1BatchTxIndex": "0x1",
      "l2ToL1Logs": []
    }
  ],
  "libraries": [],
  "pending": [],
  "returns": {},
  "timestamp": 1764095651005,
  "chain": 5447,
  "commit": "3ce41562e"
}